:100000004FEF05F000000000BAEF05F0000000001F
:0A0010000000000000000000F3D71C
:10001C000401376B1E0E716E0401400E096F5B0EEE
:10002C000A6F040E0B6F880E086F9B0E0E6F040E7A
:0A003C000F6F0D6B400E0C6F1200E9
:1000460004012A6B14EE9BF024EE18F0040E2A5DD0
:1000560004E2E6CFDEFF2A2BF9D7040E3E6F3F6B94
:02006600120086
:1000680004012A6B14EE20F024EE18F0020E2A5D2B
:1000780004E2E6CFDEFF2A2BF9D7020E3E6F3F6B74
:02008800120064
:10008A000401010E135D04E0030E135D0EE016D0A9
:10009A00000E125D04E0010E125D06E00FD0020EA2
:1000AA00396F23EC00F00AD009D0000E125D01E08E
:1000BA0005D0020E396F34EC00F000D0180E3A6FFA
:0800CA00040E3B6F3493120099
:1000D2000401020E135D04E0030E135D0CE016D062
:1000E200000E125D01E012D0020E396F5B0E3C6F02
:1000F200040E3D6F0BD0000E125D01E007D0020E20
:0E010200396F200E3C6F040E3D6F00D01200CE
:100110000401010E396F716A726A736A746A756AD2
:10012000766A776A786A796A7A6A7B6A7C6A7D6AB3
:100130007E6A7F6A326B336B12C431F4125103E171
:10014000050E306F04D0060E306F0EEC00F012007A
:100150000401800E10634FD0135103082FE0135198
:1001600002080EE01351010801E044D0010E396F7E
:10017000AC0E3A6F0B0E3B6F120E3E6F3F6B3AD0D8
:10018000010E396F450EE16E040EE26E1245E12656
:10019000000EE222E6CF3AF4E7CF3BF4F86AF76AC2
:1001A000040E3A25F66E3B51F7220900F5CF3EF4D6
:1001B00009000A00F5CF3FF40A001CD0010E396F88
:1001C000020E126502D0030E126F490EE16E040E8C
:1001D000E26E1245E126000EE222E6CF3AF4E7CFC6
:1001E0003BF43AC4F6FF3BC4F7FF0800F5503E6FFE
:0801F0003F6B00D034831200C4
:1001F8000401010E125D0CE110511F0B000808E10B
:10020800010E396F030E115D02E1348101D0349182
:10021800000E125D37E110511F0B020833E1145133
:100228000F0B00082FE0010E396F14510F0B080D4A
:10023800F350296B000F286F040E29231451800BEB
:1002480001E0010E040DF35028253C6F000E292112
:100258003D6F030E115D07E1840E3CC4E1FF3DC410
:10026800E2FFE76E0FD014AF07D0000E3CC4E1FFE9
:100278003DC4E2FFE76E06D0880E3CC4E1FF3DC4F2
:06028800E2FFE76E120028
:10028E000401186B196B10511F0B020812E010516C
:10029E001F0B01080BE010511F0B000801E029D0C5
:1002AE00010E396F34A101D0188323D0010E396F9E
:1002BE0020D0010E396F14510F0B080DF350296B1E
:1002CE00000F286F040E29231451800B01E0010E3C
:1002DE00040DF35028253C6F000E29213D6F3CC4C0
:1002EE00E1FF3DC4E2FFE750040B02E0010E186F80
:1002FE0000D0010E396309E1180E3A6F040E3B6F00
:0C030E003493020E3E6F3F6B00D01200D3
:10031A000401080E3E5D000E3F5905E23EC440F45A
:10032A003FC441F404D0080E406F000E416F04939D
:10033A0004914151030B041340C405F440513E5F3C
:10034A0041513F5B180E3C6F040E3D6F34A319D028
:10035A003AC4F6FF3BC4F7FFF86A3CC4E1FF3DC468
:10036A00E2FF4051411105E1F6CF3AF4F7CF3BF4F1
:10037A001ED00900F5CFE6FF0900400701E2410758
:10038A00F0D73AC4E1FF3BC4E2FF3CC4D9FF3DC405
:10039A00DAFF4051411105E1E1CF3AF4E2CF3BF4F3
:1003AA0006D0E6CFDEFF400701E24107F2D712008E
:1003BA000401020E135D04E0030E135D15E01CD068
:1003CA00000E125D01E018D02A6B14EE5BF024EEE9
:1003DA009BF0040E2A5D04E2E6CFDEFF2A2BF9D752
:1003EA00040E3E6F3F6B08D0000E125D01E004D090
:0A03FA00020E3E6F3F6B00D01200B0
:100404000401000E386F080E016F100E026F040E07
:0C041400036F880E006F000E046F1200D2
:1004200004011051600BE842E842E842E842E84229
:10043000000858E111510C0854E01151070851E02F
:1004400011510B0843E011510A0832E01151030821
:100450002CE01151010829E01151000823E011514D
:10046000080815E0115109080FE01151060809E0CC
:100470001151050801E036D0010E396F040E306FBE
:1004800031D0A8EC00F02ED088EC00F02BD0010E7B
:10049000396F310E3A6F040E3A6F3493010E3E6F8E
:1004A0003F6B20D047EC01F01DD0FCEC00F01AD0DF
:1004B000010E396F14513A6F3B6B320E3A27040E1E
:1004C0003B233493010E3E6F3F6B0CD0010E396F0E
:1004D000E26A320E1425E16E040EE22212C4E7FF36
:0604E00001D000D0120063
:1004E600040110511F0B010870E1145100086DE161
:1004F6001151060801E027D01351210807E01351D6
:10050600220811E0135123081BE01BD0020E396F9D
:10051600010E316304D0F40E3A6F0B0E3B6F090ED9
:100526003E6F3F6B0ED0020E396F010E316307D05E
:10053600220E3A6F0C0E3B6F2F0E3E6F3F6B01D0B3
:1005460000D0348300D01051600BE842E842E84204
:10055600E842E842010839E111510B0831E0115136
:10056600030823E011510A081BE0115102080DE0AF
:100576001151090807E01151010801E026D045ECA8
:1005860000F023D069EC00F020D0020E396F350E52
:100596003A6F040E3B6F3493010E3E6F3F6B15D0DE
:1005A600020E396F1351356F10D0020E396F360EA9
:1005B6003A6F040E3B6F3493010E3E6F3F6B05D0CE
:0C05C600020E396F1251366F00D0120087
:1005D2000401000E39630AD0080E016F100E026F7B
:1005E200040E036F840E006F046F2CD010AF1CD06A
:1005F2003E51165D3F51175904E216C43EF417C42A
:100602003FF48DEC01F0010E386F080E016F100EF1
:10061200026F040E036F800E006F180E066F040E39
:10062200076FC80E046F0ED0020E386F056BC80E2E
:10063200046F080E016F180E026F040E036FC80ECE
:0A064200006F00D06D9800D0120088
:10064C000401030E0015436F01C442F442513E27CE
:10065C0043513F23180E3A6F040E3B6F3AC4E1FF2F
:10066C003BC4E2FF3CC4D9FF3DC4DAFF4251431105
:10067C0005E1E1CF3AF4E2CF3BF406D0E6CFDEFF62
:0A068C00420701E24307F2D7120013
:100696000401376B08BF1BD009512C6502D009C471
:1006A6002CF4376B14EE5BF02DC4D9FF2EC4DAFFA1
:1006B6002C51375D04E2E6CFDEFF372BF9D7400E2B
:1006C600096F400E0817087D880E081300D03751B1
:0206D600120010
:1006D8000401000E386F000E396F3E6B3F6B10EC53
:1006E80002F0000E396302D073EC02F0E9EC02F07C
:0206F8001200EE
:1006FA000401020E38630FD026EC03F0020E3963B0
:10070A0002D0DDEC01F000BD03D0C80E006F02D0AC
:0E071A00880E006F03D002EC02F000D0120037
:100728000401040E306309D012C46EFF6E5003E05A
:10073800050E306F02D0030E306F010E38630AD0F9
:100748008DEC01F004BD03D0C80E046F02D0880EF2
:0C075800046F03D002EC02F000D012008D
:1007640004017C0E6C142F6F080E2F6302D0C2EFAD
:1007740003F00C0E2F6302D0CCEF03F0CDEF03F0A7
:1007840057C42DF458C42EF4040E2C6F4BEC03F014
:08079400446F01D000D01200F7
:0A079C0004016D9269946894120044
:1007A60004016A6A686A9F0E6B6E3B0E696E6E6A1A
:1007B600716A726A736A746A756A766A776A786A3F
:1007C600796A7A6A7B6A7C6A7D6A7E6A7F6A160EB5
:1007D600706E68A602D06896FCD76D9802EC02F09F
:0A07E6003491316B030E306F1200E6
:1007F0009C0E0C6ED70E0D6E0D2EFED70C2EFCD758
:020800001200E4
:1008020004010CBFFED7400E2C6502D0400E2C6FA7
:100812002A6B2DC4E1FF2EC4E2FF24EE9BF02C5183
:100822002A5D04E2E6CFDEFF2A2BF9D704012CC4AD
:0E0832000DF4400E0C170C7D880E0C131200F6
:0A0840000401698468986D821200BB
:10084A0004017C0E6C142F6F000E2F6302D035EF5B
:10085A0004F0040E2F6302D041EF04F044EF04F0D9
:10086A0000513C0BE842E8420D0803E16CEC03F04E
:10087A0002D07DEC03F003D094EC03F000D0120018
:06088A0004016892120057
:060890000401689C120047
:10089600040170A003D002EC02F07090689A120076
:1008A6003D0E0B6EE10E0C6E3F0E0D6E0D2EFED73D
:0E08B6000C2EFCD70B2EFAD70000000012000B
:1008C40004010CAF02D0006A1200A09A9FC02DF45C
:1008D400A0C02EF4A1C02CF492DFA08A010E006EF9
:0208E400120000
:1008E60004016DB61200140E6F6E000E306F346B7D
:1008F600316B6D6A696A6D86010E306FF8EC03F034
:100906006DBA06D0686A696A69806988020E306FB6
:020916001200CD
:10091800E9CF51F4EACF52F4E1CF53F4E2CF54F4E3
:10092800D9CF55F4DACF56F40401000E306301D064
:1009380033D069A404D068A402D0CEEC03F06DB221
:100948002BD069A004D068A002D0D3EC03F069A82A
:1009580004D068A802D020EC04F069AC04D068ACDC
:1009680002D048EC04F069AA04D068AA02D04BEC83
:1009780004F069A204D068A202D045EC04F0030E8A
:10098800306101D009D069A607D068A605D025EC4A
:1009980004F0B2EC03F0689656C4DAFF55C4D9FFE8
:1009A80054C4E2FF53C4E1FF52C4EAFF51C4E9FF53
:0209B80012002B
:1009BA001B0E00019F6F000EA06F040EA16F7DDF5A
:0809CA00005201E1F5D7120013
:1009D200E0CF14F0A09A0401060E306101D008D0D5
:1009E2006DB206D0445304E044C400F0446B03D01B
:0E09F200006A446B00D0A08A1450E06E120020
:100A0000010E016E400E015C0BE21B0EE16E000E4A
:100A1000E26E0150E126D8B0E22AE66A012AF2D756
:060A20002B0E1B6E1200FC
:100A2600A0AA05D0A1AA03D08CEC04F0A19A1200CA
:100A3600E0CF14F004EE00F0050EEE6AEA62FDD790
:100A460053EC04F00401D00E456F0B0E466FD00E2A
:100A5600476F0B0E486F140E496F0D0E4A6FE40E6A
:100A66004B6F0C0E4C6F800E4D6F0C0E4E6F1C0EA6
:100A76004F6F0D0E506F9BC057F49CC058F49DC02D
:100A860059F49EC05AF473EC04F0A19AA08AF28C31
:080A9600F28E1450E06E120014
:100A9E00F26AD09EC26A0F0EC16E926A936A946A0F
:100AAE00806A816A5B0E00019B6F000E9C6F1B0EAD
:100ABE009D6F000E9E6FB8DF00009BDF83DF00503E
:100ACE0000084FE25B502A0A01E0F8D73ED006D06C
:100ADE005DC080FF09D05DC081FF06D05E50000A68
:100AEE00F7E05E50010AF7E03CD006D05DC092FF01
:100AFE0009D05DC093FF06D05E50000AF7E05E504D
:100B0E00010AF7E02ED0030E1C6E06D080CF1DF02A
:100B1E0009D081CF1DF006D05E50000AF7E05E507E
:100B2E00010AF7E043DF1DD0040E1C6E06D092CFF3
:100B3E001DF009D093CF1DF006D05E50000AF7E0ED
:100B4E005E50010AF7E032DF0CD05C50010ABFE0C4
:100B5E005C50020ACAE05C50030AD5E05C50040AFD
:060B6E00E3E0ACD7FFD765
:100B7400D9CF19F0DACF1AF0E1CF17F0E2CF18F09D
:100B8400E9CF15F0EACF16F013EC05F0000015C01C
:100B9400E9FF16C0EAFF17C0E1FF18C0E2FF19C061
:080BA400D9FF1AC0DAFF1100AD
:100BAC00120001000000020000000000000008001C
:100BBC00200084000200000001000000010002007F
:100BCC0000000100090002002900000001000100E2
:100BDC000000A00032000900040000000000020028
:100BEC0003000000000000000900210001000100CA
:100BFC000000010022002F0000000700050081000A
:100C0C000300400000000100070005000100030084
:100C1C004000000001000600A000FF0009000100D8
:100C2C00A1000100090003001500000026000000CF
:100C3C00FF00750008009500040081000200090007
:100C4C0004001500000026000000FF0075000800DD
:100C5C009500040091000200090005001500000039
:100C6C0026000000FF007500080095000200B1008E
:040C7C000200C000B2
:100C8000320003005300000069000000670000000C
:100C90004C00000061000000620000002000000025
:100CA000430000006F0000006E00000074000000B0
:100CB000720000006F0000006C00000020000000C7
:100CC000490000006E000000740000006500000094
:100CD0007200000066000000610000006300000078
:040CE00065000000AB
:100CE40018000300530000006900000067000000C2
:100CF4004C000000610000006200000020000000C1
:100D04005400000065000000610000006D00000058
:080D14000400030009000400C3
:040D1C0002000300CE
:020000040030CA
:0E000000240E361EFF0381FF0FC00FE00F40DD
:00000001FF
